S31508000000D85C00202D03000851640008295B00080D
S315080000104D640008D519000809760008000000009C
S31508000020000000000000000000000000C165000894
S315080000307D1B000800000000C1640008396600083E
S31508000040470300084703000847030008470300085A
S31508000050470300084703000847030008470300084A
S31508000060470300084703000847030008D919000892
S31508000070E9190008F9190008091A0008191A0008E8
S31508000080291A000847030008470300084703000821
S3150800009047030008911B0008A11B00084703000836
S315080000A047030008470300084703000847030008FA
S315080000B047030008470300084703000847030008EA
S315080000C047030008470300084703000847030008DA
S315080000D047030008C17500084703000847030008DE
S315080000E047030008470300084703000847030008BA
S315080000F047030008470300084703000847030008AA
S315080001004703000847030008470300084703000899
S31508000110D966000847030008470300084703000894
S315080001204703000847030008470300084703000879
S315080001304703000847030008470300084703000869
S315080001404703000847030008470300084703000859
S315080001504703000847030008470300084703000849
S315080001604703000847030008470300084703000839
S315080001704703000847030008470300084703000829
S315080001804703000847030008470300084703000819
S315080001904703000800000000B11B0008C11B000847
S315080001A0D11B0008E11B000847030008515B000843
S315080001B047030008470300084703000847030008E9
S315080001C047030008470300084703000847030008D9
S315080001D0470300084703000800F002F800F096F805
S315080001E00AA090E8000C82448344AAF10107DA4584
S315080001F001D100F08BF8AFF2090EBAE80F0013F040
S31508000200010F18BFFB1A43F001031847B0BC0000E2
S31508000210D0BC0000103A24BF78C878C1FAD8520773
S3150800022024BF30C830C144BF04680C607047000062
S315080002300023002400250026103A28BF78C1FBD8E1
S31508000240520728BF30C148BF0B6070476E2900F0BF
S315080002503D82702900F0938366290BF09684652900
S315080002600BF0938467290BF0908461290BF08F8437
S3150800027003681B0A28BF41F08001692900F0EA815A
S31508000280642900F0E781752900F0E4816F2900F000
S315080002902183782900F05F83E92900F0BB82E429ED
S315080002A000F0B882F52900F0B582EF2900F01E8328
S315080002B0F82900F05E830368DB0928BF41F0800156
S315080002C0632901F0D180732901F0D680E32901F072
S315080002D0E180F32901F0E680002070471FB50BF096
S315080002E047FC9DE8030000F01DF901F063F90400DE
S315080002F0002000210BF026FC401C60600020002135
S315080003000BF00AFCE0601FBD10B510BD01F025F921
S315080003101146FFF7E3FF07F041FD01F001FA03B4C8
S31508000320FFF7F2FF03BC07F0EBF900000948804726
S3150800033009480047FEE7FEE7FEE7FEE7FEE7FEE7B9
S31508000340FEE7FEE7FEE7FEE704480549054A064BD1
S3150800035070470000C5660008D9010008D82C00209F
S31508000360D85C0020D84C0020D84C002070B5A0FBE3
S315080003700140B4F1805170F1000024BF002070BD27
S31508000380204600F007F805001CBF214600F0F8FBE0
S31508000390284670BD70B5064600F0A8F8056806F14F
S315080003A00B0020F00704B4429CBF002070BD2B460A
S315080003B06A68BAB11068A04210D304F108018842ED
S315080003C03CBF5068586007D35168101941601168DE
S315080003D0091B016058601460101D70BD13465268F1
S315080003E0002AE7D12146284600F088F80028DED101
S315080003F070BD70B50446051F00F078F80068002C3B
S3150800040014BF446870BD002C18BFAC423CBF2046E0
S315080004106468F8D301680A18AA4218BF456003D170
S315080004202A6805461144016028684119A1421CBF83
S315080004306C6070BD6168696021680844286070BD99
S315080004400FB4044910B503AA029800F073F910BC5A
S315080004505DF814FB100100200FB4014610B504AA7C
S31508000460039800F067F910BC5DF814FB7CB51D46CF
S3150800047016460C00009007D04142A14202D3204400
S31508000480401E01E04FF0FF30064B7B442A46694682
S315080004900190304600F033F9002C02D0009A002172
S315080004A011707CBD9702000010B5431C02E010F8DD
S315080004B0011B71B18107FAD14FF0013202C88C1ABB
S315080004C08C4314EAC211F9D0C01A0A0603D0C01E1A
S315080004D010BDC01A10BD0A0401D0801E10BD090245
S315080004E0FCD0401E10BD70477047704700487047E3
S315080004F060000020704770477047704738B504465B
S315080005000A4600206946AFF30080002808BF38BDB8
S3150800051002460099204600F059FB012038BD01200B
S3150800052000F0ECBFF8B5AFF30080054600200C4696
S315080005300C2000BF0646A819A0420DD932466946C6
S315080005400020AFF30080070008BF00F0D7FF00982F
S31508000550A04218BF0546C419FFF7C8FF056007463D
S31508000560F01D20F007004619284600F00AF8B442A4
S3150800057008BFF8BDA21B31463868BDE8F84000F050
S3150800058025BB00210160416070470C20704770B59B
S31508000590044685690068C10601D5302600E0202694
S315080005A0C00707D070BDD4E9012130469047206ABC
S315080005B0401C20626D1EF6D570BD70B5044685696F
S315080005C00078C00707D170BDD4E9012120209047E3
S315080005D0206A401C20626D1EF6D570BD09684A0562
S315080005E001D540B27047C905FCD500B27047096805
S315080005F04A0501D5C0B27047C905FCD580B2704717
S3150800060070B50C460546012A05D02878800600D51F
S31508000610EA69002302E0012305E05B1C934202D24B
S31508000620E05C0028F9D1A869E618C01AA861286A0A
S31508000630184428622846FFF7AAFF04E0D5E90121F5
S3150800064014F8010B9047B442F8D32846FFF7B5FFD4
S3150800065070BD00002DE9F041064600241068752992
S31508000660314616A510D0FFF7B9FF002802DA404236
S3150800067013A507E031688A0701D512A502E04907E4
S3150800068004D511A5012401E0FFF7B1FF00210A22D4
S3150800069006F1240709E0B0FBF2FCB0FBF2F302FB1B
S315080006A01C00303078541846491C0028F3D12346DC
S315080006B02A463046BDE8F04100F0E7BA00000000DF
S315080006C02D0000002B0000002000000011680268C1
S315080006D0006A530501D508700AE0D30501D50880DC
S315080006E006E0130603D5C217C1E9000200E0086058
S315080006F00120704701694A1C02610878704700B5F5
S315080007008FB0CDE901310021059105497944CDE93C
S3150800071003101146684600F03DF90FB000BD000011
S31508000720E5FFFFFFD1E900239A4202D2531C0B6072
S3150800073010707047074B70B50D467B44FFF7DFFF17
S315080007400446284600F0B2FE10B14FF0FF3070BDE7
S31508000750204670BD5F7400002DE9FF5F15468A4686
S315080007600446DFF8AC80F8440027D8E900103E4676
S31508000770CDE9001010E03AF816106A4602A800F013
S3150800078099FE411C07D02178890603D5E2693918F4
S3150800079091420DD80744761C2078800602D5E06978
S315080007A0B84205DDAE42E6DB3AF816000028E2D18B
S315080007B0A069C01BA0612046FFF7E9FED8E9001032
S315080007C0CDE90010002017E03AF818106A4602A88A
S315080007D000F070FEB0F1FF3F81460BD000250DF109
S315080007E0080B05E0D4E901211BF8050090476D1CAC
S315080007F04D45F7D308F10100B0428046E4DB206A94
S31508000800384420622046FFF7D8FEBDE8FF9F000067
S315080008102AB400002DE9F0418046D21D22F00702D5
S315080008200025D2E90002F52915A614D0011E72F199
S31508000830000106DA0023D0EB030063EB020211A6DF
S3150800084008E0D8F800108B0701D50FA602E0490783
S3150800085001D50EA601251146002408F1240704E057
S3150800086000F0CEF930323A55641C50EA0102F7D14D
S315080008702B46324621464046BDE8F04100F005BA0F
S31508000880000000002D0000002B00000020000000E2
S3150800089030B4002100F1240408E002F00705D2086C
S315080008A0303542EA4372DB086554491C52EA0305AF
S315080008B0F3D10468002310A2250708D504F0200404
S315080008C00C4304D0C46901230CA2641EC46130BC65
S315080008D000F0DBB910B5044621461068FFF787FE1D
S315080008E002462046BDE810400023D1E7D21D22F07B
S315080008F00701D1E90023CBE7000000003000000023
S31508000900F0B40D460188090502D5214C7C4402E065
S315080009101F4C7C440E34002100F1240608E002F046
S315080009200F071209E75D42EA03721B097754491C4F
S3150800093052EA0307F3D102780023120704D5702D73
S3150800094006D009B1022311342246F0BC00F09DB945
S3150800095001231034F8E770B504460D4621461068A1
S31508000960FFF745FE024629462046BDE870400023AB
S31508000970C6E7D21D22F00703D3E90023C0E70368C0
S31508000980126843F0200303600823C3610023B7E716
S315080009908CB200002DE9F05F894604464FF0000A44
S315080009A0DFF874B1FB44C0F820A02046E168884708
S315080009B0002874D0252806D0D4E901219047206A5A
S315080009C0401C2062F1E700265F462046E16888471A
S315080009D02028054607DB312D05D2781910F8200C9A
S315080009E008B10643F1E7B00701D526F00406C4F8B6
S315080009F01CA00027C4F818A02A2D09D028460BF0F9
S31508000A0083F838B304EB8708303DC8F8185019E066
S31508000A1059F8041B204604EB87029161E168884770
S31508000A20012F054618D1E069002820DA26F02006AD
S31508000A301DE0D8F8180000EB800005EB40003038C0
S31508000A40C8F818002046E168884705460BF05CF8A8
S31508000A500028EED1012F0AD02E2D08D12046E168B4
S31508000A6088477F1C0546022F46F02006C4DBA0698E
S31508000A70002803DA404246F00106A061F00701D0DB
S31508000A8026F010066C2D0BD0682D09D04C2D39D0C8
S31508000A906A2D35D0742D35D07A2D33D016E038E04E
S31508000AA0E1682F4620468847B842054609D16C2F8B
S31508000AB026D04FF48060E1680643204688470546FD
S31508000AC004E06C2F1AD04FF4807006430DB3A5F1DD
S31508000AD04100192802D8203546F400664A462946B8
S31508000AE0204626604E46FFF7B1FB80B101280BD0A1
S31508000AF0F61D26F0070000F1080956E74020E4E74E
S31508000B008020D8E70020D6E706F104094DE72846F5
S31508000B1052E7206ABDE8F09F1CB2000010B5203AE3
S31508000B20C0F00B80B1E81850A0E81850B1E818508A
S31508000B30A0E81850203ABFF4F5AF5FEA027C24BF5C
S31508000B40B1E81850A0E8185044BF18C918C0BDE845
S31508000B5010405FEA827C24BF51F8043B40F8043B0E
S31508000B6008BF7047D20728BF31F8023B48BF11F8C3
S31508000B70012B28BF20F8023B48BF00F8012B70471D
S31508000B804FF000020429C0F0128010F0030C00F0A8
S31508000B90BE84CCF1040CBCF1020F18BF00F8012B7F
S31508000BA0A8BF20F8022BA1EB0C0100F0B0BC5FEA4D
S31508000BB0C17C24BF00F8012B00F8012B48BF00F8C0
S31508000BC0012B7047004870475800002003464068CC
S31508000BD08C46002818BF88423CBF03464068F8D3B5
S31508000BE018681844884207D00CF1030020F0070063
S31508000BF0001D411A521A0146081D0A60FFF7F9BB83
S31508000C0030B5B0F10A0271F100034FEA900E4EEAD0
S31508000C10817EB0EB0E0061EB91014FEA101E4EEAA1
S31508000C20017E10EB0E0041EB11114FEA102E4EEA31
S31508000C30016E10EB0E0041EB11214FEA104E4EEA01
S31508000C40014E10EB0E0041EB1141401841F1000135
S31508000C504FEAD00040EA41704FEAD1014FEA8104D9
S31508000C6044EA907410EB800544EB01046D1944EBDB
S31508000C700404521BA3414FF0000348BF0A3200D5B3
S31508000C8030BD401C41F1000130BD2DE9F0470D464D
S31508000C9099469246044600F124080168880604D558
S31508000CA0E06921F01001216000E00120A84201DD81
S31508000CB0471B00E00027A1697A1902EB0900081A08
S31508000CC0A0612078C00602D42046FFF760FC002603
S31508000CD008E0D4E901211AF806009047206A401C6A
S31508000CE0761C20624E45F4DB2078C0060AD52046DD
S31508000CF0FFF74DFC06E0D4E9012130209047206A31
S31508000D00401C2062381EA7F10107F4DC07E0D4E98D
S31508000D10012118F805009047206A401C2062281E09
S31508000D20A5F10105F3DC2046FFF747FC207800060D
S31508000D3002D50220BDE8F0870120FBE72DE9FF4F29
S31508000D400C461E464FF0FF378BB0D2E90001DDF89E
S31508000D5060800A908A46C1F30A5505B93D460021C6
S31508000D6008464FF00000BAF1000F00F4400005DA1B
S31508000D7000EB80004FF4400101EA50004FEA905919
S31508000D80B9F1010F00DDB9460A9850EA4A000ED0BB
S31508000D9044F61050A5F2FF3545432F14B8F1000F5D
S31508000DA01ED07542291E1EDDC9F100021CE0B8F1ED
S31508000DB0010F4FF0000001D0302103E0F24305E0B7
S31508000DC02154401CB042FBDB30460022002121544E
S31508000DD00B99C1F80880C1E900200FB0BDE8F08F73
S31508000DE0BD1B6D1CDEE74A4600DA694206A800F01C
S31508000DF025FC06AB93E8070003AB83E807005046DB
S31508000E000A990AF0A0FA8DE80700A0F500501F38E5
S31508000E1000900398002D0ADD42F21F014A46084455
S31508000E20002303A9039068460AF00AFD09E0A0F525
S31508000E3000504A461F38002303A9039068460AF063
S31508000E4014FD8DE807000004000C03D04FF0FF30B6
S31508000E50410800E01046B8F1000F03D000220092C6
S31508000E6015461EE0751E05D4FFF7CAFE30326255D8
S31508000E706D1EF9D5B3460122084302D000227F1C15
S31508000E8004E02078302801D100227F1E002A099725
S31508000E9084D01DE0112D07DAFFF7B2FE3032625515
S31508000EA06D1C50EA0102F5D1084302D00098C8B17A
S31508000EB00EE00021681E05E0235C625C6354225440
S31508000EC0401E491C8142F7DBAB46A81B401E099011
S31508000ED0002004F80B000B98099AC0F80880C0E9AE
S31508000EE0002B7AE711264FF0000857E72DE9F04F57
S31508000EF088460446D21D22F0070191B0D1E90001C7
S31508000F00CDE90A010AF0E8FD02460B98C00F01D0A8
S31508000F102D2007E02068810701D52B2002E020213B
S31508000F2001EAC000032A099001D0072A05DB034617
S31508000F304146204600F042FB0BE12078800601D5A9
S31508000F40E06900E00620B8F1650F814606D0B8F1E1
S31508000F50660F18D0B8F1670F70D131E00020B9F1EB
S31508000F60110F009001DB112301E009F101030AAA20
S31508000F7001A90CA8FFF7E2FEDDE90C70002609F1CD
S31508000F800105834647E001204B4600904FF0004795
S31508000F900AAA01A90CA8FFF7D1FEDDE90DB00C9944
S31508000FA05D46002610B909F101000D18B9EB0500D8
S31508000FB003D4C0F1FF3609F10105A5EB09002BE0C2
S31508000FC0B9F1010F01DA4FF001090020B9F1110F4B
S31508000FD00090484601DD112300E003460AAA01A94C
S31508000FE00CA8FFF7ABFEDDE90C704D4600268346DC
S31508000FF0207800070AD4AB4500DA5D4601A8012D22
S3150800100004DD411911F8011C302907D04F4502DAD1
S3150800101017F1040F04DA012082460FE06D1EEEE791
S31508001020002F02DCED1B3E4403E0781CA84200DDDD
S315080010307D1CB81B00F1010A4FF000472078000715
S3150800104003D4AA4501DB4FF0FF3A0021B7F1004F60
S315080010500DF143088DF8431024D002202B23002FCE
S3150800106001DA7F422D230A21021EA0F1010000DCCD
S315080010705FB197FBF1FC97FBF1F201FB1C7C17466D
S315080010800CF1300C08F801CDEEE7A8F10100037069
S315080010902188090501D5452100E06521A0F101084F
S315080010A000F8011C09980FA9A1EB0807FF1D00B15C
S315080010B00120411901EBEA70A1693844081A401E5B
S315080010C0A0612078C00602D42046FFF760FA099886
S315080010D028B1D4E901219047206A401C2062207873
S315080010E0C00622D52046FFF752FA1EE0002E04DB82
S315080010F0B34502DD01A8805D00E03020D4E9012176
S315080011009047206A401C2062761CAAF101005FEA1B
S31508001110000A0AD100F04EFAC0680168405CD4E9BA
S3150800112001219047206A401C2062281EA5F101056E
S31508001130DCDC07E0D4E9012118F8010B9047206AA6
S31508001140401C2062381EA7F10107F3DC2046FFF792
S3150800115034FA032011B041E62DE9F04F04460D4656
S31508001160D21D22F0070089B0D0E9009748463946D3
S315080011700AF0B2FC0246F80F01D02D2307E02068DA
S31508001180810701D52B2302E0202101EAC0038DF84F
S3150800119020300BB1012000E00020032A824601D04E
S315080011A0072A04DB2946204600F008FA3FE12078A2
S315080011B0800601D40D2500E0E569C7F30A560D2D12
S315080011C049DA00214FEA175B08464FF00000002F66
S315080011D000F4400007DA00EB80004FF4400100EB12
S315080011E0D07001EA60008115012901DD4FF0FF3159
S315080011F000224FEA850CBCF1180F06D31346ACF152
S3150800120018004FF08052C24003E04FF4801323FACF
S315080012100CF30CF10C0CBCF1200F04D3ACF1200C30
S3150800122009FA0CF001E007FA0CF000294FF0004823
S3150800123001DD18B90FE00ED140450CD319EB0209B0
S315080012405F4121B9404502D19F4329EA0209BBEB18
S31508001250175F00D0761C2088000502D57B487844A5
S3150800126002E07A487844193808AA302302F80A3086
S31508001270037C0AF10101002E0AF1020A53546A4658
S3150800128002DC4FF0300101E04FF031014FF0010868
S315080012908DF8001002D0A6F2FF3603E059EA47019E
S315080012A000D06B4E002D02DC2178090704D54FF0DB
S315080012B002082E218DF80110C44600210BE0C7F361
S315080012C003433F01C35C491C6D1E02F8083005291B
S315080012D008F1010801DA002DF1DC00210CE000EB31
S315080012E01973491C1B786D1E082902F808304FEA45
S315080012F0091908F1010801DA002DF0DC21688B06CE
S3150800130002D516E0A8F10108E04505DD02EB080361
S3150800131013F8013C302BF5D0B8F1000F09DD02EBCC
S31508001320080313F8013C2E2B03D1090701D4A8F1B1
S315080013300108002D05DD3E2102F808106D1E08F192
S315080013400108407C002E02F8080008F1010804DABA
S315080013502D20764202F8080002E02B2002F8080049
S315080013600A214FF47A70864208F101080BDB96FBD6
S31508001370F0F3303302F8083096FBF0F308F1010871
S3150800138000FB136601E0642E0CDB642096FBF0F389
S31508001390303302F8083096FBF0F308F1010800FB39
S315080013A0136601E00A2E06DB96FBF1F0303002F8F0
S315080013B0080008F1010896FBF1F001FB10603030D7
S315080013C002F80800A16908F1010808EB050202EB1A
S315080013D00A00081AA0612078C00602D42046FFF742
S315080013E0D6F8216A08AE01EB0A00206204E0D4E9C7
S315080013F0012116F8010B9047BAF1010AF7D22078B5
S31508001400C00602D52046FFF7C2F86E4609E016F870
S31508001410010B3E280FD0D4E901219047206A401CD1
S315080014202062B8F10108F2D22046FFF7C6F809B0E3
S315080014300320BDE8F08F206A2844206203E0D4E93F
S315080014400121302090476D1EEBD3F8E786A90000EE
S3150800145002FCFFFF10B5436913B1AFF3008001E04A
S31508001460FFF7CEF8012010BD127800F124010A70AA
S3150800147000224A700122EDE711684FF0FF32E9E7D2
S3150800148010B5436913B1AFF3008001E0FFF764F9C3
S31508001490012010BD128800F1240182840022C28432
S315080014A00122EDE711684FF0FF32E9E7007B00F013
S315080014B0800070472DE9F04116460C46054600F0B7
S315080014C071F8036893F80101012807D0FF2C12D898
S315080014D0185D80B101202C70BDE8F081D3F80701B2
S315080014E03246214603F20713C7182846BC46BDE80C
S315080014F0F041002360474FF0FF30EDE710B500F0EC
S315080015001DF9BDE8104000F014B94FF0000200B50F
S31508001510134694469646203922BFA0E80C50A0E808
S315080015200C50B1F12001BFF4F7AF090728BFA0E8B6
S315080015300C5048BF0CC05DF804EB890028BF40F882
S31508001540042B08BF704748BF20F8022B11F0804FC4
S3150800155018BF00F8012B704770477546FFF732FB36
S31508001560AE4605006946534620F00700854618B082
S3150800157020B5FEF7E9FEBDE820404FF000064FF023
S3150800158000074FF000084FF0000BAC46ACE8C00966
S31508001590ACE8C009ACE8C009ACE8C00921F007010D
S315080015A08D46704710B500F005F8001D10BD00BF48
S315080015B095A5000000487047780000202DE9F04105
S315080015C01F46044603260168072A01F4006004DB67
S315080015D008B116A505E016A503E008B115A500E0B3
S315080015E015A521F010002060A069C01EA0610FB1EA
S315080015F0401EA0612046FEF7CAFF4FB1D4E901217B
S3150800160038469047206A401C2062C01C206206E0CB
S31508001610206AFAE7D4E9012115F8010B9047761EEE
S31508001620F8D22046FEF7C9FFBDE8F0814E414E00CC
S315080016306E616E00494E4600696E66002DE9F047F8
S31508001640814616468AB0354878440DC88DE80D009F
S3150800165032487844801C03AC0DC884E80D0041F676
S315080016609B300844372190FBF1F290FBF1F5A5F188
S31508001670800501FB12041B3C02D56442012000E0F0
S315080016800020DFF898A080460027FA44AAF1BE0A8F
S315080016900EE0E0070AD03246684607EB4701012309
S315080016A00AEB81010AF0E1F88DE8070064107F1C57
S315080016B0002CEED1194F7F44AE3F19E0E80715D04C
S315080016C007EB04100DF1180A90E80E008AE80E00E0
S315080016D0C068F04201D1981908903246012306A93C
S315080016E003A80AF0C2F803AB83E807006D10641C70
S315080016F0002DE3D14FF0010332466946B8F1000FD9
S3150800170003A802D00AF09CF801E00AF0AEF8C9E98D
S315080017100001C9F808200AB0BDE8F0872CA6000029
S3150800172010B50446AFF300802046BDE81040FEF72A
S31508001730F6BD002801D005F0E3BF704710B50128B3
S3150800174005D0002103A000F021F8012010BD09A151
S31508001750F8E7000053494752544D454D3A204F7516
S3150800176074206F662068656170206D656D6F72798B
S31508001770000000003A2048656170206D656D6F7243
S315080017807920636F727275707465640070B505466A
S315080017900C460A2000E06D1C00F050F835B1287898
S315080017A00028F8D102E0641C00F048F814B120784B
S315080017B00028F8D1BDE870400A2000F03FB80000C4
S315080017C030B44FF0013C50F8042B51F8043BCCFAE6
S315080017D052F4D51A20D1FCB950F8042B51F8043B21
S315080017E0CCFA52F4D51A17D1B4B950F8042B51F8DB
S315080017F0043BCCFA52F4D51A0ED16CB950F8042B26
S3150800180051F8043BCCFA52F4D51A05D1002CDAD09B
S3150800181030BC4FF00000704729BAB1FA81F111F0D7
S315080018201801D1F120008440F2D1CA40CB4012F011
S31508001830FF0213F0FF0330BCD01A704708B569469B
S315080018408DF800000320ABBE08BD53EA020C00F079
S3150800185069802DE9F04B4FF00006002B1FBFB3FA45
S3150800186083F503FA05F424FA05F65E4012BF16431B
S31508001870B2FA82F502FA05F4C5F120051EBF22FA6E
S3150800188005FC44EA0C04203556EA044C4FEA144495
S3150800189018BF641C4FF000084FF00009904271EB26
S315080018A0030C39D3002919BFB1FA81F701FA07F6F3
S315080018B0B0FA80F700FA07F6C7F120071EBF20FA2C
S315080018C007FC46EA0C062037B6FBF4FCA7EB05072F
S315080018D0103F07F01F0BCBF120062CFA06F60CFA80
S315080018E00BFB44BFB3460026202FA4BF5E464FF02D
S315080018F0000B5BEA060C08BF4FF0010B19EB0B094E
S3150800190048EB0608ABFB027C06FB02CC0BFB03CCC0
S31508001910C01B71EB0C01C1E70B460246414648461F
S31508001920BDE8F08B13B5084318BF4FF0FF300146EA
S31508001930AFF30080BDE81C407047032A40F23080B0
S3150800194010F0030C00F0158011F8013BBCF1020FF2
S31508001950624498BF11F801CB00F8013B38BF11F873
S31508001960013BA2F1040298BF00F801CB38BF00F88A
S31508001970013B11F003033FF4D1A8083AC0F00880F0
S3150800198051F8043B083A51F804CBA0E80810F5E7EB
S31508001990121D5CBF51F8043B40F8043BAFF30080CE
S315080019A0D20724BF11F8013B11F801CB48BF11F843
S315080019B0012B24BF00F8013B00F801CB48BF00F813
S315080019C0012B704702F0FF0343EA032242EA024270
S315080019D0FFF79DBDFFE7FEE780B540F29830C2F2FB
S315080019E0000000F035FA80BD80B540F2F830C2F24A
S315080019F0000000F02DFA80BD80B540F21820C2F232
S31508001A00000000F025FA80BD80B540F27820C2F2C9
S31508001A10000000F01DFA80BD80B540F2D820C2F261
S31508001A20000000F015FA80BD80B540F23830C2F2E9
S31508001A30000000F00DFA80BD84B00390039800689A
S31508001A4040F20741C4F20201884211D8FFE740F686
S31508001A500000C4F2020000900398007808384CF69B
S31508001A60CD41CCF6CC41A0FB01010809019012E05A
S31508001A7040F62000C4F20200009003980078083867
S31508001A804CF6CD41CCF6CC41A0FB0101082000EB79
S31508001A9011100190FFE700980290029803994A6C8A
S31508001AA022F0030210448864039840F68001C4F2C9
S31508001AB00201C164019800F01F00012101FA00F03B
S31508001AC00399086504B0704782B001900198406890
S31508001AD000F07F000090009840F6FC01C4F2020175
S31508001AE001EB800001994865019840F64011C4F25F
S31508001AF0020181650098013800F01F00012101FAF2
S31508001B0000F00199C86502B07047000084B00390E0
S31508001B100291019200930398C16C006D4860039886
S31508001B20406D28B1FFE70398816DC06D4860FFE7F7
S31508001B300398016C406C00F01F00012202FA00F0C5
S31508001B4048600098039909684860039880681028D7
S31508001B5009D1FFE7019803990968886002980399F3
S31508001B600968C86008E002980399096888600198BE
S31508001B7003990968C860FFE704B07047704700001A
S31508001B8081B0EFF3108072B60090FFE7FEE7000021
S31508001B9080B540F25840C2F2000000F005FE80BD54
S31508001BA080B540F25840C2F2000000F0FDFD80BD4D
S31508001BB080B540F2BC40C2F2000000F0F5FD80BDE1
S31508001BC080B540F2BC40C2F2000000F0EDFD80BDD9
S31508001BD080B540F22050C2F2000000F0E5FD80BD5D
S31508001BE080B540F22050C2F2000000F0DDFD80BD55
S31508001BF083B002904AF20040C4F2000000900298B6
S31508001C00006846F60001C4F20001884205D1FFE7E4
S31508001C10009800F554700090FFE70298006846F6B1
S31508001C200041C4F20001884205D1FFE7009800F59B
S31508001C30D4600090FFE7009802990864029800684B
S31508001C40D0F8800020F4F81002990A68496B40EA37
S31508001C500140C2F8800000987030029948640298E2
S31508001C600068D0F8800020F0706002990A68896BD5
S31508001C7040EA0160C2F880000098B0300299886492
S31508001C80009800F5C4700299C864009800F51870A9
S31508001C9002990865009800F51E7002994865009833
S31508001CA00190FFE70198009901F55471884208D21E
S31508001CB0FFE7019800210160FFE7019804300190D1
S31508001CC0F0E703B07047000083B0019000208DF85C
S31508001CD00300019820B9FFE701208DF80B004AE0C0
S31508001CE0019890F82500022807D0FFE701980421FB
S31508001CF0C16301208DF803002EE001980068016891
S31508001D0021F00101016001980068016821F00E01C7
S31508001D1001600198806C016821F480710160019866
S31508001D20016C406C00F01F00012202FA00F04860C6
S31508001D300198C16C006D48600198406D58B1FFE785
S31508001D400198406D016821F4807101600198816DE8
S31508001D50C06D4860FFE7FFE70198012180F825106C
S31508001D60FFE70198002180F82410FFE79DF803009B
S31508001D708DF80B00FFE79DF80B0003B070470000D5
S31508001D8080B582B0019000208DF80300019890F884
S31508001D902500022811D0FFE701980421C1630198A4
S31508001DA0012180F82510FFE70198002180F824100A
S31508001DB0FFE701208DF8030040E0019800680168FC
S31508001DC021F00101016001980068016821F00E0107
S31508001DD001600198806C016821F4807101600198A6
S31508001DE0016C406C00F01F00012202FA00F0486006
S31508001DF00198C16C006D48600198406D58B1FFE7C5
S31508001E000198406D016821F4807101600198816D27
S31508001E10C06D4860FFE70198012180F82510FFE7AB
S31508001E200198002180F82410FFE70198806B20B103
S31508001E30FFE70198816B8847FFE7FFE79DF80300F6
S31508001E4002B080BD81B000900098C06B01B07047A9
S31508001E5080B584B003900398006C006802900398DC
S31508001E6000680068019002980399496C01F01F0107
S31508001E70C8404007002826D5FFE79DF8040040071C
S31508001E80002820D5FFE70398006800688006002828
S31508001E9007D4FFE703980068016821F00401016090
S31508001EA0FFE70398016C406C00F01F00042202FA59
S31508001EB000F048600398006B20B1FFE70398016BB8
S31508001EC08847FFE76FE002980399496C01F01F0104
S31508001ED0C8408007002830D5FFE79DF80400800732
S31508001EE000282AD5FFE703980068006880060028BE
S31508001EF00BD4FFE703980068016821F00A01016026
S31508001F000398012180F82510FFE70398016C406CBF
S31508001F1000F01F00022202FA00F04860FFE703986B
S31508001F20002180F82410FFE70398C06A20B1FFE774
S31508001F300398C16A8847FFE734E002980399496C19
S31508001F4001F01F01C8400007002829D5FFE79DF8C2
S31508001F5004000007002823D5FFE7039800680168F6
S31508001F6021F00E0101600398016C406C00F01F001F
S31508001F70012202FA00F048600398C263039880F8C9
S31508001F802520FFE70398002180F82410FFE703982F
S31508001F90406B20B1FFE70398416B8847FFE700E0F5
S31508001FA0FFE7FFE7FFE704B080BD000080B584B017
S31508001FB00290029820B9FFE701208DF80F009EE0F5
S31508001FC00298006840F20741C4F20201884218D814
S31508001FD0FFE7029801684FF6F872CBF6FD721144D6
S31508001FE04CF6CD42CCF6CC42A1FB02126FF00301AF
S31508001FF001EA9201416402980021C4F202010164D7
S3150800200018E0029801684FF6F832CBF6FD721144D3
S315080020104CF6CD42CCF6CC42A1FB02126FF003017E
S3150800202001EA92014164029840F20041C4F20201B9
S315080020300164FFE70298022180F8251002980068DB
S3150800204000680190019847F6F0718843019002985C
S31508002050D0F808C0C2680369416942EA0C021A430B
S31508002060114382691143C2691143006A0843019901
S315080020700843019001980299096808600298FFF7D9
S31508002080DBFC02988068B0F5804F04D1FFE7029820
S3150800209000214160FFE702984168806C01F07F01EA
S315080020A001600298C16C006D48600298406888B16A
S315080020B0FFE70298406804280CD8FFE70298FFF764
S315080020C003FD0298406D002101600298816DC06D84
S315080020D0486007E0029800214165029881650298E8
S315080020E0C165FFE702980021C1630298012280F8C2
S315080020F02520029880F824108DF80F10FFE79DF828
S315080021000F0004B080BD000080B586B0049003912E
S315080021100292019300208DF80300FFE7049890F8D7
S315080021202400012804D1FFE702208DF8170065E096
S315080021300498012180F82410FFE7FFE7049890F837
S31508002140250001284BD1FFE70498022180F82510C5
S3150800215004980021C16304980068016821F0010110
S31508002160016004980399029A019BFFF7CFFC049833
S31508002170006B38B1FFE704980068016841F00E016A
S3150800218001600CE004980068016821F00401016010
S3150800219004980068016841F00A010160FFE70498A5
S315080021A0806C0068C003002807D5FFE70498806C98
S315080021B0016841F480710160FFE70498406D38B109
S315080021C0FFE70498406D016841F480710160FFE7FC
S315080021D004980068016841F00101016009E0FFE721
S315080021E00498002180F82410FFE702208DF80300E8
S315080021F0FFE79DF803008DF81700FFE79DF8170025
S3150800220006B080BD80B541F23800C4F202004FF036
S31508002210FF3101600022026041F24000C4F2020070
S315080022200160026041F22800C4F202000160026007
S3150800223041F22C00C4F202000160026041F2300053
S31508002240C4F2020001600260AFF3008080BD0000A6
S3150800225080B584B00A20039001F024F9029003980F
S3150800226001900198013020B1FFE7019801300190F3
S31508002270FFE7FFE701F016F90299401A019988422B
S3150800228001D2FFE7F6E704B080BD000086B00490EF
S3150800229003910292049890F85C008DF80700BDF847
S315080022A00C0010F4C07F01D0FFE7FFE79DF8070098
S315080022B0012806D0FFE79DF80700022840F0DE80D7
S315080022C0FFE704980068806D00909DF80C004007B1
S315080022D030B1FFE79DF80000C007002847D0FFE7A8
S315080022E09DF80C0010F0380F06D0FFE79DF80000A7
S315080022F0800700283BD5FFE7BDF80C0010F4E07F07
S3150800230006D0FFE79DF80000400700282FD5FFE715
S315080023109DF80D0010F01E0F06D0FFE79DF800008F
S315080023200007002823D5FFE79DF80D0010F0E00F01
S3150800233006D0FFE79DF80000C006002817D5FFE77E
S315080023409DF80E00800730B1FFE79DF80000800673
S3150800235000280CD5FFE79DF80E0010F0FC0F0DD0F5
S31508002360FFE79DF800004006002807D4FFE7049819
S315080023700068C16D41F00101C165FFE79DF80C00D9
S31508002380400730B1FFE79DF80000C007002847D195
S31508002390FFE79DF80C0010F0380F06D0FFE79DF810
S315080023A00000800700283BD4FFE7BDF80C0010F4B6
S315080023B0E07F06D0FFE79DF80000400700282FD4ED
S315080023C0FFE79DF80D0010F01E0F06D0FFE79DF8F9
S315080023D000000007002823D4FFE79DF80D0010F041
S315080023E0E00F06D0FFE79DF80000C006002817D4C6
S315080023F0FFE79DF80E00800730B1FFE79DF8000063
S31508002400800600280CD4FFE79DF80E0010F0FC0F9C
S315080024100DD0FFE79DF800004006002807D5FFE726
S3150800242004980068C16D41F00201C165FFE79DF897
S315080024300C000006002809D5FFE7029804990968E8
S31508002440D1F8DC201043C1F8DC00FFE79DF80D0049
S31508002450C00748B1FFE7029804990968D1F8E02057
S315080024601043C1F8E000FFE70398049909684A6D2C
S315080024701043486500208DF8170008E00498016E9F
S3150800248041F00201016601208DF81700FFE79DF86B
S31508002490170006B07047000087B0059004910598AC
S315080024A090F85C008DF803009DF80300012805D01C
S315080024B0FFE79DF8030002283CD1FFE7049800686F
S315080024C0B8B9FFE704988168C26803694069890753
S315080024D041EAC26141EA0341084303900598006C4A
S315080024E00499496800EB81000190039801990860F6
S315080024F01CE00498C168006940EA4170039004989A
S315080025008168406940EA817002900598406C049998
S31508002510496800EBC1000190039801990860019889
S3150800252004300190029801990860FFE700208DF8B1
S315080025301B0008E00598016E41F0020101660120C2
S315080025408DF81B00FFE79DF81B0007B070470000D9
S3150800255081B0009001B0704782B00190009102B03E
S31508002560704700008AB00890079140F2B410C2F292
S315080025700000069040F27410C2F200000590089818
S3150800258090F85C008DF803009DF80300022840F0DF
S31508002590FA80FFE7079840283ED1FFE708980068C9
S315080025A0D0F89000000748B9FFE70898016E41F493
S315080025B08071016601208DF82700EDE00898006813
S315080025C0D0F89000C0F30120019008980068D0F870
S315080025D0900000F080700121B1EB106F12D1FFE777
S315080025E008980068D0F8800000F400700121B1EB6B
S315080025F0502F06D1FFE70198013000F00300019043
S31508002600FFE7FFE70898806C019901EBC10100EB31
S31508002610C1000490FFE73DE008980068D0F89800EC
S31508002620000748B9FFE70898016E41F48071016612
S3150800263001208DF82700AFE008980068D0F89800C8
S31508002640C0F30120019008980068D0F8980000F0BF
S3150800265080700121B1EB106F12D1FFE7089800686E
S31508002660D0F8800000F480700121B1EB102F06D15C
S31508002670FFE70198013000F003000190FFE7FFE74C
S315080026800898C06C019901EBC10100EBC1000490E8
S31508002690FFE7FFE70498006800F080400699486065
S315080026A00698406838B9FFE704980068C0F38A407E
S315080026B00699086006E00498006820F060400699CC
S315080026C00860FFE70498006800F0005006998860E3
S315080026D00498006800F000400699086104980430E0
S315080026E00490049800880699C86104980068C0F3A5
S315080026F003400699C8600498006800F4801006999B
S3150800270048610498006800F40010069988610498E6
S315080027100068C0F306600699086204980068C00F4E
S31508002720069948620498043004900498039000209F
S315080027300290FFE702980699C9684BF6A842C0F6C8
S315080027400002515C88420AD2FFE703980299405C6E
S31508002750059A5054FFE7029801300290EAE7079875
S31508002760402806D1FFE7019808990968C1F894003E
S3150800277005E0019808990968C1F89C00FFE7002060
S315080027808DF8270008E00898016E41F008010166F7
S3150800279001208DF82700FFE79DF827000AB070474B
S315080027A081B0009001B0704780B58AB00990099849
S315080027B00068006D00F4E050089009980068406DC4
S315080027C008990840089009980068006D00F007000D
S315080027D0079009980068406D07990840079009987E
S315080027E00068006D00F03800069009980068406D92
S315080027F006990840069009980068006D00F4710073
S31508002800059009980068406D059908400590099853
S315080028100068006D00F46020049009980068406D17
S3150800282004990840049009980068406D0190099839
S315080028300068006D00909DF8000000F0400000213F
S31508002840B1EB901F12D0FFE79DF8040000F040009E
S315080028500021B1EB901F08D0FFE7099800684021D6
S3150800286001650998FFF79CFFFFE7FFE79DF8010060
S31508002870C007E0B1FFE79DF80500C007B0B1FFE764
S3150800288009980068D0F8D800029009980068D0F82E
S31508002890E000029908400290099800684FF4807198
S315080028A001650998029900F0EBFBFFE7FFE7089836
S315080028B048B1FFE7089809990968086509980899C9
S315080028C000F0EAFBFFE7079848B1FFE70798099980
S315080028D0096808650998079900F05AFBFFE7069802
S315080028E048B1FFE70698099909680865099806999D
S315080028F000F072FBFFE79DF8010000F002000021DE
S31508002900B1EB500F13D0FFE79DF8050000F0020069
S315080029100021B1EB500F09D0FFE7099800684FF482
S3150800292000710165099800F0BDFBFFE7FFE79DF818
S3150800293000000021B1EBD01F1DD0FFE79DF8040071
S315080029400021B1EBD01F15D0FFE709980068D0F831
S31508002950D400039009980068D0F8DC000399084071
S31508002960039009980068802101650998039900F089
S315080029708DFBFFE7FFE79DF8010000F0200000212E
S31508002980B1EB501F13D0FFE79DF8050000F02000BB
S315080029900021B1EB501F09D0FFE7099800684FF4F2
S315080029A000510165099800F067FBFFE7FFE79DF80E
S315080029B001000021B1EBD01F11D0FFE79DF80500FB
S315080029C00021B1EBD01F09D0FFE7099800684FF442
S315080029D000410165099800F04BFBFFE7FFE79DF80A
S315080029E0010000F040000021B1EB901F15D0FFE771
S315080029F09DF8050000F040000021B1EB901F0BD0B8
S31508002A00FFE7099800684FF4804101650998016E4F
S31508002A1041F080010166FFE7FFE7049848B1FFE748
S31508002A20049809990968086509980499FFF794FDB7
S31508002A30FFE7059850B1FFE7059809990968086501
S31508002A40059809990A6E10430866FFE70998006E0B
S31508002A5020B1FFE70998FFF77BFDFFE70AB080BDC5
S31508002A6080B584B00290029820B9FFE701208DF85E
S31508002A700F0058E10298006846F20041C4F20001CE
S31508002A80884201D1FFE7FFE702988068B0F5407FEA
S31508002A9001D1FFE7FFE7029890F85C0040B9FFE72D
S31508002AA00298002180F85D10029800F041F9FFE7CE
S31508002AB002980068816921F01001816100F0F2FC3A
S31508002AC00190FFE70298006880690007002815D57D
S31508002AD0FFE700F0E7FC0199401A0B280DD3FFE742
S31508002AE00298016E41F0010101660298032180F8FF
S31508002AF05C1001208DF80F0015E1E3E702980068E5
S31508002B00816941F00101816100F0CCFC0190FFE789
S31508002B10029800688069C007A8B9FFE700F0C2FC00
S31508002B200199401A0B280DD3FFE70298016E41F070
S31508002B30010101660298032180F85C1001208DF8D6
S31508002B400F00F0E0E4E702980068816941F00201AD
S31508002B5081610298006846F20041C4F20001884289
S31508002B6008D1FFE70298406846F20051C4F2000116
S31508002B700860FFE70298007C012807D1FFE7029862
S31508002B800068816921F04001816106E002980068C9
S31508002B90816941F040018161FFE70298407C012884
S31508002BA007D1FFE702980068816941F48041816195
S31508002BB006E002980068816921F480418161FFE797
S31508002BC00298807C012807D1FFE70298006881698E
S31508002BD021F48051816106E002980068816941F418
S31508002BE080518161FFE702980068806920F440708F
S31508002BF002990A68896808439061029800688169A1
S31508002C0021F0A401816102980068016921F0100190
S31508002C1001610298C068012807D1FFE70298006899
S31508002C20816941F0040181612BE00298C06830B3E4
S31508002C30FFE70298C068022819D0FFE702980068E3
S31508002C40816941F08001816102980068016941F05B
S31508002C50100101610298C068032807D1FFE70298AE
S31508002C600068816941F020018161FFE706E002986A
S31508002C700068816941F020018161FFE700E0FFE714
S31508002C80FFE70298D0F800C0D0F814E08369C1695C
S31508002C90013B6FF0FF0202EB012141EA4361006A42
S31508002CA0013808430021CFF6FF7101EB0E410843B6
S31508002CB0CCF81C0002988068B0F5407F1CD1FFE76D
S31508002CC00298D0F800C0D0F824E0836AC16A013BB4
S31508002CD06FF0FF0202EB01211943006B6FF00F0240
S31508002CE002EB001008430021CFF6FF7101EB0E41FD
S31508002CF00843CCF80C00FFE702980168C06BD1F8CE
S31508002D00C0201043C1F8C0000298FEF771FF029870
S31508002D1000218165029801660298012280F85C20EC
S31508002D208DF80F10FFE79DF80F0004B080BD000076
S31508002D3080B5A2B02190002020901F901E901D9073
S31508002D401C9007A85421FEF7E0FB2198006846F27C
S31508002D500041C4F20001884257D1FFE74FF4805082
S31508002D6007904FF00070159007A800F023FD18B1E2
S31508002D70FFE7FEF705FFFFE740F2B800C2F20000E2
S31508002D800168013101600068012810D1FFE7FFE7FB
S31508002D9041F25800C4F20200016841F00071016076
S31508002DA0006800F0007006900698FFE7FFE7FFE767
S31508002DB041F24C00C4F20200016841F008010160CA
S31508002DC0006800F0080005900598FFE703201C90AE
S31508002DD002201D9000201E901F900920209040F68A
S31508002DE00040C4F600001CA900F060F91520002177
S31508002DF000F0E0FB152000F0D3FB1620002100F0C0
S31508002E00D9FB162000F0CCFBC0E02198006846F6F6
S31508002E100001C4F20001884257D1FFE74FF4805001
S31508002E2007904FF00070159007A800F0C3FC18B182
S31508002E30FFE7FEF7A5FEFFE740F2B800C2F2000082
S31508002E400168013101600068012810D1FFE7FFE73A
S31508002E5041F25800C4F20200016841F000710160B5
S31508002E60006800F0007004900498FFE7FFE7FFE7AA
S31508002E7041F24C00C4F20200016841F0020101600F
S31508002E80006800F0020003900398FFE760201C909A
S31508002E9002201D9000201E901F900920209040F2CD
S31508002EA00040C4F600001CA900F000F956200521D0
S31508002EB000F080FB562000F073FB5720052100F038
S31508002EC079FB572000F06CFB5FE02198006846F616
S31508002ED00041C4F20001884256D1FFE74FF4805002
S31508002EE007904FF00070159007A800F063FC18B122
S31508002EF0FFE7FEF745FEFFE740F2B800C2F2000022
S31508002F000168013101600068012810D1FFE7FFE779
S31508002F1041F25800C4F20200016841F000710160F4
S31508002F20006800F0007002900298FFE7FFE7FFE7ED
S31508002F3041F24C00C4F20200016841F0010101604F
S31508002F40006800F0010001900198FFE74FF4014086
S31508002F501C9002201D9000201E901F900B20209090
S31508002F601CA94FF0904000F0A1F85820052100F068
S31508002F7021FB582000F014FB5920052100F01AFB0C
S31508002F80592000F00DFBFFE7FFE7FFE722B080BD01
S31508002F9080B582B0019000919DF80000C00708B97D
S31508002FA0FFE717E040F2DC10C2F20000006808B93B
S31508002FB0FFE70FE0019840F67421C2F200010860AD
S31508002FC04020486040F2DC10C2F20000006807F0BA
S31508002FD039FBFFE702B080BD80B582B00190009151
S31508002FE09DF800000007002801D4FFE717E040F22B
S31508002FF0DC10C2F20000006808B9FFE70FE001988C
S3150800300040F67421C2F2000108604120486040F28F
S31508003010DC10C2F20000006807F014FBFFE702B0FC
S3150800302080BD000082B00090009890F85C000128EE
S3150800303010D1FFE70098022180F85C10009800681C
S31508003040816921F0010181610098002101668DF8EE
S31508003050071008E00098016E41F00401016601209E
S315080030608DF80700FFE79DF8070002B070470000DB
S3150800307081B0009001B0704781B0009001B07047F0
S3150800308082B00190009102B07047000082B00190B2
S31508003090009102B07047000082B00190009102B022
S315080030A07047000081B0009001B0704786B0059067
S315080030B0049100200390FFE7049800680399C8402C
S315080030C0002800F0A781FFE7049800680399012209
S315080030D002FA01F1084002900298002800F0968151
S315080030E0FFE70498406800F00300012807D0FFE7CF
S315080030F00498406800F0030002282FD1FFE70598DE
S315080031008068019003984000032101FA00F00199B4
S3150800311021EA000001900498C06803994900884094
S3150800312001990843019001980599886005984068B7
S3150800313001900398012101FA00F0019921EA0000A3
S31508003140019004984068C0F30010039988400199DB
S3150800315008430190019805994860FFE7049840687C
S3150800316000F0030003280CD1FFE70498406800F03C
S31508003170030003281DD1FFE704988068012818D0AA
S31508003180FFE70598C068019003984000032101FAFB
S3150800319000F0019921EA00000190049880680399DB
S315080031A04900884001990843019001980599C8602B
S315080031B0FFE70498406800F00300022826D1FFE7DD
S315080031C0059803996FF0030202EA51010844006A60
S315080031D00190039800F0070080000F2101FA00F023
S315080031E0019921EA0000019004980069039901F009
S315080031F007018900884001990843019001980599BB
S31508003200039B02EA530211440862FFE70598006827
S31508003210019003984000032101FA00F0019921EA80
S31508003220000001900498406800F0030003994900E3
S315080032308840019908430190019805990860049807
S3150800324080798007002800F0E080FFE7FFE741F279
S315080032506000C4F20200016841F0010101600068E3
S3150800326000F0010000900098FFE7039820F00300A3
S315080032700821C4F2010140580190039800F00300A8
S3150800328080000F2101FA00F0019921EA000001905F
S315080032900598B0F1904F02D1FFE7002035E0059878
S315080032A040F20041C4F60001884202D1FFE701203E
S315080032B02AE0059840F60001C4F60001884202D1CA
S315080032C0FFE702201FE0059840F60041C4F600011A
S315080032D0884202D1FFE7032014E0059841F2000175
S315080032E0C4F60001884202D1FFE7042009E00599E7
S315080032F041F20042C4F600020620914208BF0520AA
S31508003300FFE7FFE7FFE7FFE7FFE7039901F00301A0
S31508003310890088400199084301900198039921F092
S3150800332003010822C4F20102885040F20840C4F2A0
S315080033300100006801900298019921EA00000190B5
S3150800334004988079C006002805D5FFE702980199F8
S3150800335008430190FFE7019840F20841C4F20101D1
S31508003360086040F20C40C4F201000068019002981F
S31508003370019921EA000001900498807980060028C6
S3150800338005D5FFE70298019908430190FFE70198E0
S3150800339040F20C41C4F20101086040F20440C4F254
S315080033A00100006801900298019921EA0000019045
S315080033B0049880798007002805D5FFE702980199C7
S315080033C008430190FFE7019840F20441C4F2010165
S315080033D0086040F20040C4F20100006801900298BB
S315080033E0019921EA0000019004988079C00728B164
S315080033F0FFE70298019908430190FFE7019840F218
S315080034000041C4F201010860FFE7FFE703980130B5
S31508003410039051E606B0704782B00190ADF80210ED
S3150800342001980069BDF80210084204D0FFE70120A0
S315080034308DF8010003E000208DF80100FFE79DF8F4
S31508003440010002B07047000083B040F20041C4F6A4
S3150800345000010291ADF806000298406900900098B4
S31508003460BDF8061000EA010221EA000040EA02401F
S315080034700299886103B0704782B00190ADF80210D6
S315080034808DF801209DF8010028B1FFE7BDF802007C
S315080034900199886104E0BDF8020001998862FFE796
S315080034A002B0704742F6B430C2F2000000687047B6
S315080034B042F6B430C2F2000001680131016070477B
S315080034C080B582B000208DF8070000F08BF80F2039
S315080034D000F00CF820B1FFE701208DF8070002E0A4
S315080034E000F03AF8FFE702B080BD000080B582B070
S315080034F0019000208DF80300FFE740F20000C2F2B9
S315080035000000006844F6D351C1F26201A0FB010134
S31508003510880901F015FAA8B9FFE701980F280CD811
S31508003520FFE701994FF0FF3000F044F8019840F2A8
S315080035304C01C2F20001086003E001208DF8030087
S31508003540FFE703E001208DF80300FFE7FFE79DF89A
S31508003550030002B080BD000080B582B0FFE741F2EB
S315080035606000C4F20200016841F0010101600068D0
S3150800357000F0010001900198FFE7FFE741F25800CB
S31508003580C4F20200016841F080510160006800F051
S31508003590805000900098FFE700F002F902B080BD65
S315080035A080B582B08DF807009DF9070004F02EF863
S315080035B002B080BD10B584B08DF80F0002910020CE
S315080035C0019004F03DF800909DF90F40009802998B
S315080035D0019A02F03FFF0146204604F039F804B08C
S315080035E010BD000080B582B003200190019804F058
S315080035F051F802B080BD000083B000200190019808
S3150800360000285BD1FFE747F20000C4F2000000681B
S3150800361000F4C060B0F5806F46D1FFE747F280003E
S31508003620C4F20000016821F48071016047F20000CD
S31508003630C4F200000168012262F34A21016040F2E7
S315080036400000C2F200000068322148434DF683614B
S31508003650C4F21B31A0FB010102EB91400090FFE789
S3150800366047F21400C4F20000016800204905002949
S3150800367005D5FFE70098002818BF0120FFE7C00717
S3150800368020B1FFE7009801380090E9E747F21400F7
S31508003690C4F2000000684005002804D5FFE70320AF
S315080036A08DF80B0079E008E047F28000C4F20000CC
S315080036B0016821F480710160FFE76AE00198B0F5BE
S315080036C0007F5BD1FFE747F20000C4F20000006804
S315080036D000F4C060B0F5806F46D1FFE747F280007E
S315080036E0C4F20000016841F48071016047F20000ED
S315080036F0C4F200000168012262F34A21016040F227
S315080037000000C2F200000068322148434DF683618A
S31508003710C4F21B31A0FB010102EB91400090FFE7C8
S3150800372047F21400C4F20000016800204905002988
S3150800373005D5FFE70098002818BF0120FFE7C00756
S3150800374020B1FFE7009801380090E9E747F2140036
S31508003750C4F2000000684005002804D5FFE70320EE
S315080037608DF80B0019E008E047F28000C4F200006B
S31508003770016841F480710160FFE709E047F2000043
S31508003780C4F200000168022262F34A210160FFE7E1
S31508003790FFE700208DF80B00FFE703B07047000035
S315080037A047F20800C4F20000016841F48041016054
S315080037B07047000080B586B0059000208DF80B0094
S315080037C08DF80A00059880780007002840F1B78030
S315080037D0FFE700208DF8090041F25800C4F2020004
S315080037E00068C000002813D4FFE7FFE741F258003D
S315080037F0C4F20200016841F080510160006800F0DF
S31508003800805001900198FFE701208DF80900FFE735
S3150800381047F20000C4F20000016841F480710160BB
S31508003820FFF740FE0390FFE747F20000C4F20000EE
S315080038300068C00500280CD4FFE7FFF733FE03999C
S31508003840401A032804D3FFE703208DF80B0001E094
S31508003850EAE7FFE79DF80B0000285CD1FFE741F295
S315080038609000C4F20200006800F4407004900498C6
S31508003870C8B1FFE704980599096D884213D0FFE798
S3150800388041F29000C4F20200016821F440710491EB
S31508003890016841F480310160016821F480310160DA
S315080038A004990160FFE79DF81000C007E8B1FFE73B
S315080038B0FFF7F8FD0390FFE741F29000C4F202001B
S315080038C00068800700280ED4FFE7FFF7EBFD039991
S315080038D0401A41F28931884204D3FFE703208DF864
S315080038E00B0001E0E8E7FFE7FFE79DF80B0060B98A
S315080038F0FFE741F29000C4F20200016821F440712A
S31508003900059A126D1143016004E09DF80B008DF8CD
S315080039100A00FFE704E09DF80B008DF80A00FFE7B0
S315080039209DF80900012809D1FFE741F25800C4F2C1
S315080039300200016821F080510160FFE7FFE7059862
S315080039400078C00760B1FFE741F28800C4F20200C0
S31508003950016821F00301059A526811430160FFE7E7
S3150800396005980078800700280CD5FFE741F2880003
S31508003970C4F20200016821F00C01059A926811430D
S315080039800160FFE705980078400700280CD5FFE797
S3150800399041F28800C4F20200016821F03001059A5C
S315080039A0D26811430160FFE70598007800070028F0
S315080039B00CD5FFE741F28800C4F20200016821F045
S315080039C0C001059A126911430160FFE7059800785E
S315080039D0C00600280CD5FFE741F28800C4F20200B1
S315080039E0016821F44071059A526911430160FFE7A5
S315080039F005980078800600280CD5FFE741F2880074
S31508003A00C4F20200016821F44061059A92691143E3
S31508003A100160FFE705980078400600280CD5FFE707
S31508003A2041F28800C4F20200016821F44051059A67
S31508003A30D26911430160FFE705980078000600285F
S31508003A400CD5FFE741F28800C4F20200016821F4B0
S31508003A504041059A126A11430160FFE705984078CC
S31508003A60C00760B1FFE741F28800C4F202000168AE
S31508003A7021F44031059A526A11430160FFE705981F
S31508003A808078800700280CD5FFE741F29C00C4F235
S31508003A900200016821F00301059A926A1143016048
S31508003AA0FFE705984078800700280CD5FFE741F224
S31508003AB08800C4F20200016821F44021059AD26AFE
S31508003AC011430160FFE705984078400700281BD599
S31508003AD0FFE741F28800C4F20200016821F44011B0
S31508003AE0059A126B114301600598006BB0F5801FAB
S31508003AF009D1FFE741F20C00C4F20200016841F463
S31508003B0080110160FFE7FFE7059840780007002865
S31508003B101BD5FFE741F28800C4F20200016821F4D0
S31508003B204001059A526B114301600598406BB0F548
S31508003B30800F09D1FFE741F20C00C4F202000168C8
S31508003B4041F480110160FFE7FFE705984078C00659
S31508003B5000281BD5FFE741F28800C4F2020001687D
S31508003B6021F04071059A926B114301600598806BAC
S31508003B70B0F1807F09D1FFE741F20C00C4F20200E0
S31508003B80016841F480110160FFE7FFE70598407876
S31508003B90800600281BD5FFE741F28800C4F2020020
S31508003BA0016821F04061059AD26B114301600598BE
S31508003BB0C06BB0F1006F09D1FFE741F20C00C4F207
S31508003BC00200016841F480110160FFE7FFE70598EC
S31508003BD04078400600281BD5FFE741F28800C4F26A
S31508003BE00200016821F04061059A126C11430160D8
S31508003BF00598006CB0F1006F09D1FFE741F20C009F
S31508003C00C4F20200016841F480110160FFE7FFE792
S31508003C1005984078000600281BD5FFE741F2880082
S31508003C20C4F20200016821F04051059A526C114312
S31508003C3001600598406CB0F1805F09D1FFE741F259
S31508003C400C00C4F20200016841F480310160FFE70C
S31508003C50FFE705988078C007D8B1FFE741F28800EA
S31508003C60C4F20200016821F04041059A926C1143A2
S31508003C7001600598806CB0F1804F09D1FFE741F2E9
S31508003C800C00C4F20200016841F480310160FFE7CC
S31508003C90FFE705988078400700281BD5FFE741F223
S31508003CA09C00C4F20200016821F44011059AD26C06
S31508003CB0114301600598C06CB0F5001F09D1FFE7F4
S31508003CC041F20C00C4F20200016841F4801101605F
S31508003CD0FFE7FFE79DF80A0006B080BD80B586B00D
S31508003CE004900420039000200090049820B9FFE770
S31508003CF001208DF8170081E1039842F20001C4F211
S31508003D000201096801F00F01884216D9FFE742F25D
S31508003D100000C4F20200016821F00F01039A114362
S31508003D200160006800F00F000399884204D0FFE79D
S31508003D3001208DF8170061E1FFE704980078C007B5
S31508003D40002800F0A380FFE704984068032839D1CB
S31508003D50FFE741F20000C4F2020000688001002873
S31508003D6004D4FFE701208DF8170047E102F0DAFBDB
S31508003D70019001984BF20141C0F2C441884220D318
S31508003D80FFE741F20800C4F20200006810F0F00FE5
S31508003D900AD0FFE7049800788007002810D5FFE7C7
S31508003DA00498806860B9FFE741F20800C4F202008F
S31508003DB00168082262F30711016080200090FFE77E
S31508003DC0FFE738E00498406802280ED1FFE741F281
S31508003DD00000C4F2020000688003002804D4FFE74C
S31508003DE001208DF8170009E10DE041F20000C4F248
S31508003DF0020000684005002804D4FFE701208DF87A
S31508003E001700FBE0FFE700F02BF9019001984BF251
S31508003E100141C0F2C44188420CD3FFE741F20800D1
S31508003E20C4F202000168082262F3071101608020CB
S31508003E300090FFE7FFE741F20800C4F202000168BC
S31508003E4021F00301049A526811430160FFF72AFB27
S31508003E500290FFE741F20800C4F20200006800F091
S31508003E600C0004994968B0EB810F0ED0FFE7FFF705
S31508003E7019FB0299401A41F28931884204D3FFE7B7
S31508003E8003208DF81700B9E0E4E7FFE70498007807
S31508003E90800700282CD5FFE70498007840070028FB
S31508003EA009D5FFE741F20800C4F20200016841F4AF
S31508003EB0E0610160FFE704980078000700280BD549
S31508003EC0FFE741F20800C4F20200016841F4E0612C
S31508003ED021F460510160FFE741F20800C4F20200D4
S31508003EE0016821F0F001049A9268114301600DE01F
S31508003EF00098802809D1FFE741F20800C4F20200C1
S31508003F00016821F0F0010160FFE7FFE7039842F23C
S31508003F100001C4F20201096801F00F01884228D2A3
S31508003F20FFE742F20000C4F20200016821F00F0127
S31508003F30039A11430160FFF7B5FA0290FFE742F2D0
S31508003F400000C4F20200006800F00F0003998842DE
S31508003F500ED0FFE7FFF7A6FA0299401A41F2893117
S31508003F60884204D3FFE703208DF8170046E0E6E70A
S31508003F70FFE704980078400700280CD5FFE741F2D0
S31508003F800800C4F20200016821F4E061049AD268CC
S31508003F9011430160FFE704980078000700280DD553
S31508003FA0FFE741F20800C4F20200016821F46051FB
S31508003FB0049A126941EAC2010160FFE700F050F86D
S31508003FC041F20801C4F202010968C9B209094BF6AF
S31508003FD0B842C0F60002515C01F01F01C84040F229
S31508003FE00001C2F20001086040F24C00C2F2000073
S31508003FF00068FFF77BFA8DF81700FFE79DF81700B2
S3150800400006B080BD40F20000C2F2000000687047AA
S3150800401080B5FFF7F7FF41F20801C4F2020109680B
S31508004020C1F302214BF6C842C0F60002515C01F00A
S315080040301F01C84080BD000080B5FFF7E3FF41F2CD
S315080040400801C4F202010968C1F3C2214BF6C8424D
S31508004050C0F60002515C01F01F01C84080BD000097
S3150800406085B041F20800C4F20200006800F00C00B6
S31508004070042806D1FFE742F20040C0F2F40000909F
S3150800408067E041F20800C4F20200006800F00C0084
S31508004090082806D1FFE747F64000C0F27D100090D9
S315080040A056E041F20800C4F20200006800F00C0075
S315080040B00C2849D1FFE741F20C00C4F2020001685E
S315080040C001F0030103910068C0B2012101EB101051
S315080040D001900398022814D0FFE7032812D1FFE7BE
S315080040E0019847F64001C0F27D11B1FBF0F041F2AC
S315080040F00C01C4F202010968C1F306214843049081
S3150800410011E0FFE7019842F20041C0F2F401B1FB69
S31508004110F0F041F20C01C4F202010968C1F306216C
S3150800412048430490FFE741F20C00C4F2020000681D
S3150800413000F0C060022101EB106002900498029919
S31508004140B0FBF1F0009002E000200090FFE7FFE7E7
S31508004150FFE7009805B07047B0B588B00690069896
S3150800416020B9FFE701208DF81F00C8E306980078FC
S31508004170C007002800F09B80FFE741F20800C4F260
S315080041800200006800F00C00049041F20C00C4F232
S315080041900200006800F00300039004980C2804D17C
S315080041A0FFE70398032804D0FFE70498082812D1EC
S315080041B0FFE741F20000C4F202000068800300280D
S315080041C008D5FFE70698406820B9FFE701208DF873
S315080041D01F0094E36AE0FFE706984068B0F5803F61
S315080041E009D1FFE741F20000C4F20200016841F478
S315080041F08031016020E006984068B0F5A02F0DD107
S31508004200FFE741F20000C4F20200016841F4802190
S315080042100160016841F4803101600CE041F2000060
S31508004220C4F20200016821F480310160016821F4BA
S3150800423080210160FFE7FFE7FFE706984068D0B1F5
S31508004240FFE7FFF72FF90590FFE741F20000C4F2F8
S3150800425002000068800300280CD4FFE7FFF722F964
S315080042600599401A652804D3FFE703208DF81F0037
S3150800427045E3EAE719E0FFF715F90590FFE741F28C
S315080042800000C4F202000068800300280CD5FFE78E
S31508004290FFF708F90599401A652804D3FFE70320B4
S315080042A08DF81F002BE3EAE7FFE7FFE7FFE706982D
S315080042B000788007002840F19F80FFE741F2080058
S315080042C0C4F20200006800F00C00049041F20C00F1
S315080042D0C4F20200006800F00300039004980C285A
S315080042E004D1FFE70398022804D0FFE704980428BE
S315080042F02CD1FFE741F20000C4F202000068400535
S31508004300002808D5FFE70698C06820B9FFE701200E
S315080043108DF81F00F3E241F20400C4F202000168BE
S3150800432021F0FE41069A126941EA0261016040F2F3
S315080043304C00C2F200000068FFF7D8F820B1FFE78A
S3150800434001208DF81F00DAE2FFE754E00698C068FE
S3150800435070B3FFE741F20000C4F20200016841F4BD
S3150800436080710160FFF79EF80590FFE741F20000B3
S31508004370C4F202000068400500280CD4FFE7FFF7E6
S3150800438091F80599401A032804D3FFE703208DF80E
S315080043901F00B4E2EAE741F20400C4F20200016831
S315080043A021F0FE41069A126941EA0261016021E0A4
S315080043B041F20000C4F20200016821F48071016034
S315080043C0FFF770F80590FFE741F20000C4F202001B
S315080043D00068400500280CD5FFE7FFF763F8059944
S315080043E0401A032804D3FFE703208DF81F0086E24E
S315080043F0EAE7FFE7FFE7FFE70698007800070028E7
S3150800440049D5FFE70698406910B3FFE741F29400E3
S31508004410C4F20200016841F001010160FFF742F8A9
S315080044200590FFE741F29400C4F202000068800795
S3150800443000280CD4FFE7FFF735F80599401A03283A
S3150800444004D3FFE703208DF81F0058E2EAE721E0CE
S3150800445041F29400C4F20200016821F001010160F2
S31508004460FFF720F80590FFE741F29400C4F2020036
S315080044700068800700280CD5FFE7FFF713F80599B1
S31508004480401A032804D3FFE703208DF81F0036E2FD
S31508004490EAE7FFE7FFE7069800784007002840F1BB
S315080044A0C680FFE700208DF80B0041F25800C4F2E1
S315080044B002000068C000002813D4FFE7FFE741F2B6
S315080044C05800C4F20200016841F08051016000689A
S315080044D000F0805001900198FFE701208DF80B004D
S315080044E0FFE747F20000C4F200000068C005002894
S315080044F022D4FFE747F20000C4F20000016841F445
S3150800450080710160FEF7CEFF0590FFE747F20000D5
S31508004510C4F200000068C00500280CD4FFE7FEF7C7
S31508004520C1FF0599401A032804D3FFE703208DF835
S315080045301F00E4E1EAE7FFE7FFE70698806801283D
S3150800454009D1FFE741F29000C4F20200016841F088
S31508004550010101601FE00698806805280DD1FFE774
S3150800456041F29000C4F20200016841F004010160C2
S31508004570016841F0010101600CE041F29000C4F2CB
S315080045800200016821F001010160016821F00401BF
S315080045900160FFE7FFE7FFE706988068E0B1FFE7FD
S315080045A0FEF780FF0590FFE741F29000C4F2020093
S315080045B00068800700280ED4FFE7FEF773FF059909
S315080045C0401A41F28931884204D3FFE703208DF867
S315080045D01F0094E1E8E71BE0FEF764FF0590FFE79C
S315080045E041F29000C4F202000068800700280ED548
S315080045F0FFE7FEF757FF0599401A41F289318842CD
S3150800460004D3FFE703208DF81F0078E1E8E7FFE70A
S315080046109DF80B00012809D1FFE741F25800C4F2C2
S315080046200200016821F080510160FFE7FFE7069864
S3150800463000788006002849D5FFE70698806910B3F8
S31508004640FFE741F29800C4F20200016841F0010157
S315080046500160FEF727FF0590FFE741F29800C4F2D4
S3150800466002000068800700280CD4FFE7FEF71AFF4F
S315080046700599401A032804D3FFE703208DF81F0085
S315080046803DE1EAE721E041F29800C4F20200016840
S3150800469021F001010160FEF705FF0590FFE741F2F1
S315080046A09800C4F202000068800700280CD5FFE7CE
S315080046B0FEF7F8FE0599401A032804D3FFE70320FE
S315080046C08DF81F001BE1EAE7FFE7FFE70698C069D8
S315080046D0002800F01081FFE741F20800C4F202004A
S315080046E0006800F00C000C2800F0AC80FFE7069884
S315080046F0C069022878D1FFE741F20000C4F202003F
S31508004700016821F080710160FEF7CCFE0590FFE795
S3150800471041F20000C4F202000068800100280CD5AE
S31508004720FFE7FEF7BFFE0599401A032804D3FFE703
S3150800473003208DF81F00E2E0EAE741F20C0EC4F20E
S31508004740020EDEF8001048F20C02C0F29F1201EACF
S31508004750020C069A136A516A906AD46A6FF00F05BA
S3150800476005EB0111194341EA0020116B0023CFF62E
S31508004770E07303EA0151A1F500110843516B4FF0AC
S315080047807E4202EA016101F17E41084340EAC460C3
S3150800479040EA0C00CEF8000041F20000C4F2020024
S315080047A0016841F080710160DEF8000040F0807019
S315080047B0CEF80000FEF776FE0590FFE741F200000E
S315080047C0C4F202000068800100280CD4FFE7FEF757
S315080047D069FE0599401A032804D3FFE703208DF8DC
S315080047E01F008CE0EAE72CE041F20000C4F2020068
S315080047F0016821F080710160FEF754FE0590FFE71D
S3150800480041F20000C4F202000068800100280CD5BD
S31508004810FFE7FEF747FE0599401A032804D3FFE78A
S3150800482003208DF81F006AE0EAE741F20C00C4F2A3
S31508004830020001684FF6FC72CFF6EE621140016085
S31508004840FFE757E00698C069012804D1FFE7012071
S315080048508DF81F0053E041F20C00C4F20200006814
S315080048600390039800F003000699096A88423BD131
S31508004870FFE7039800F0F0000699496A6FF00F0207
S3150800488002EB011188422FD1FFE7039800F4FE409E
S315080048900699896AB0EB012F26D1FFE7039800F045
S315080048A078400699C96AB0EBC16F1DD1FFE7039836
S315080048B000F4C0000699096B0022CFF6E07202EAFE
S315080048C00151A1F5001188420ED1FFE7039800F0C7
S315080048D0C0600699496B4FF07E4202EA016101F118
S315080048E07E41884204D0FFE701208DF81F0006E0CC
S315080048F0FFE7FFE7FFE700208DF81F00FFE79DF8B9
S315080049001F0008B0B0BD000081B0042000900098D8
S31508004910042809D1FFE74EF21000CEF20000016824
S3150800492041F00401016008E04EF21000CEF20000EA
S31508004930016821F004010160FFE701B0704700003B
S3150800494080B582B00190019801F04CFE02B080BD9E
S3150800495083B00190FFE7019890F88400012804D1FC
S31508004960FFE702208DF80B002CE00198012180F862
S315080049708410FFE7FFE701982421C0F88810019802
S3150800498000680068009001980068016821F001013C
S315080049900160009820F000500090019800214166BF
S315080049A0009801990968086001982021C0F88810C4
S315080049B0FFE70198002180F88410FFE700208DF8B2
S315080049C00B00FFE79DF80B0003B0704782B001901B
S315080049D0ADF8021002B0704781B0009001B0704780
S315080049E080B584B0029000200190FFE7029890F805
S315080049F08400012804D1FFE702208DF80F0032E079
S31508004A000298012180F88410FFE7FFE70298242125
S31508004A10C0F888100298006800680090029800683C
S31508004A20016821F00101016002980068806820F0A1
S31508004A30606001990843029909688860029801F044
S31508004A4053FE009802990968086002982021C0F868
S31508004A508810FFE70298002180F88410FFE70020FD
S31508004A608DF80F00FFE79DF80F0004B080BD000029
S31508004A7080B584B0029000200190FFE7029890F874
S31508004A808400012804D1FFE702208DF80F0032E0E8
S31508004A900298012180F88410FFE7FFE70298242195
S31508004AA0C0F88810029800680068009002980068AC
S31508004AB0016821F00101016002980068806820F011
S31508004AC0604001990843029909688860029801F0D4
S31508004AD00BFE009802990968086002982021C0F820
S31508004AE08810FFE70298002180F88410FFE700206D
S31508004AF08DF80F00FFE79DF80F0004B080BD000099
S31508004B0081B0009001B0704781B0009001B0704745
S31508004B1080B586B00490FFE7FFE70498006850E880
S31508004B20000F20F490700390FFE703980499096832
S31508004B3041E80002002AF0D1FFE7FFE7FFE7FFE7B9
S31508004B400498006850E8020F4FF6FE71CEF6FF7122
S31508004B5008400290FFE702980499096841E80202B2
S31508004B60002AEDD1FFE7FFE70498C06E012814D1AB
S31508004B70FFE7FFE7FFE70498006850E8000F20F01A
S31508004B8010000190FFE701980499096841E80002BE
S31508004B90002AF0D1FFE7FFE7FFE70498006880687E
S31508004BA04006002837D5FFE7FFE7FFE704980068C7
S31508004BB050E8020F20F040000090FFE700980499A3
S31508004BC0096841E80202002AF0D1FFE7FFE70498E6
S31508004BD0D0F88000F0B1FFE70498D0F880000021F3
S31508004BE081630498D0F88000FDF76EF888B1FFE776
S31508004BF00498D0F88000FDF725F9202808D1FFE7AA
S31508004C0004981021C0F8901003208DF8170016E0BC
S31508004C10FFE7FFE7FFE7049800680F2101620498A1
S31508004C200068816941F00801816104982021C0F873
S31508004C308C1004980021C1668DF81710FFE706B09E
S31508004C4080BD000080B584B00390039808B9FFE7DB
S31508004C5087E0039800F088F80290029808B9FFE701
S31508004C607FE09DF80800C00728B1FFE703980068B1
S31508004C7001210162FFE79DF808008007002805D595
S31508004C80FFE70398006804210162FFE79DF8080022
S31508004C904007002805D5FFE703980068022101624E
S31508004CA0FFE79DF808000007002805D5FFE70398E9
S31508004CB0006808210162FFE7FFE703980068816939
S31508004CC041F00801816103980068816941F010018B
S31508004CD08161FFE7039804F025FE0190019868B109
S31508004CE0FFE70398D0F8800040B1FFE70198806895
S31508004CF020B1FFE70198006908B9FFE731E003989A
S31508004D00FFF706FF01980021C1600198006840B1CD
S31508004D10FFE701980068002101600198006841607A
S31508004D20FFE700200090FFE70098022818D8FFE761
S31508004D300398019A9168128A00F05AFD58B9FFE75C
S31508004D40039800681021016203980068016841F021
S31508004D501001016005E0FFE7009801300090E3E7E5
S31508004D60FFE704B080BD000081B000900098D0F83D
S31508004D70900001B07047000080B590B00F900F9872
S31508004D800068C0690E900F98006800680D900F982B
S31508004D90006880680C900E9840F60F0108400B904A
S31508004DA00B98E0B9FFE79DF838008006002815D56E
S31508004DB0FFE79DF834008006002806D4FFE79DF833
S31508004DC03300C006002809D5FFE70F98406F20B1C9
S31508004DD0FFE70F98416F8847FFE796E2FFE70B98D2
S31508004DE0002800F00C81FFE70C980121C1F20001B0
S31508004DF0084209D1FFE70D9840F22011C0F20041A0
S31508004E00084200F0FC80FFE79DF83800C00788B12B
S31508004E10FFE79DF83500C00760B1FFE70F98006807
S31508004E20012101620F98D0F8901041F00101C0F8F5
S31508004E309010FFE79DF838008007002811D5FFE796
S31508004E409DF83000C00760B1FFE70F98006802219F
S31508004E5001620F98D0F8901041F00401C0F8901044
S31508004E60FFE79DF838004007002811D5FFE79DF8B1
S31508004E703000C00760B1FFE70F980068042101629F
S31508004E800F98D0F8901041F00201C0F89010FFE793
S31508004E909DF838000007002819D5FFE79DF834006B
S31508004EA08006002807D4FFE70C980121C1F200010B
S31508004EB008420CD0FFE70F980068082101620F9896
S31508004EC0D0F8901041F00801C0F89010FFE79DF85F
S31508004ED039000007002813D5FFE79DF8370040077B
S31508004EE000280DD5FFE70F9800684FF400610162AE
S31508004EF00F98D0F8901041F02001C0F89010FFE705
S31508004F000F98D0F89000002878D0FFE79DF8380071
S31508004F108006002815D5FFE79DF83400800600288E
S31508004F2006D4FFE79DF83300C006002809D5FFE739
S31508004F300F98406F20B1FFE70F98416F8847FFE74A
S31508004F40FFE70F98D0F890000A900F9800688068DD
S31508004F5000F04000402806D0FFE79DF8280010F032
S31508004F60280F42D0FFE70F9801F0A2FE0F980068BD
S31508004F7080684006002833D5FFE7FFE7FFE70F986C
S31508004F80006850E8020F20F040000990FFE70998F2
S31508004F900F99096841E80202002AF0D1FFE7FFE706
S31508004FA00F98D0F88000B0B1FFE70F98D0F88000CE
S31508004FB046F6F511C0F6000181630F98D0F8800017
S31508004FC0FCF7DEFE30B1FFE70F98D0F88000816B62
S31508004FD08847FFE703E00F98FFF734FEFFE703E093
S31508004FE00F98FFF72FFEFFE707E00F98FFF72AFE57
S31508004FF00F980021C0F89010FFE7FFE785E10F98AA
S31508005000C06E012840F02281FFE79DF83800C006EF
S31508005010002840F11B81FFE79DF83400C0060028F0
S3150800502040F11481FFE70F980068102101620F987C
S31508005030006880684006002840F1A680FFE70F98C0
S31508005040D0F8800000684068ADF82200BDF822005C
S3150800505000287CD0FFE7BDF822000F99B1F85C1054
S31508005060884274DAFFE7BDF822000F99A1F85E00BE
S315080050700F98D0F88000006800688006002859D488
S31508005080FFE7FFE7FFE70F98006850E8000F20F4F6
S3150800509080700790FFE707980F99096841E80002B2
S315080050A0002AF0D1FFE7FFE7FFE7FFE70F98006860
S315080050B050E8020F20F001000690FFE706980F99C6
S315080050C0096841E80202002AF0D1FFE7FFE7FFE797
S315080050D0FFE70F98006850E8020F20F0400005909F
S315080050E0FFE705980F99096841E80202002AF0D1FE
S315080050F0FFE7FFE70F982021C0F88C100F980021D2
S31508005100C166FFE7FFE70F98006850E8000F20F038
S3150800511010000490FFE704980F99096841E8000217
S31508005120002AF0D1FFE7FFE70F98D0F88000FCF7D8
S31508005130CBFDFFE70F98022101670F98B0F85C10C6
S31508005140B0F85E20891A89B2FFF740FC1BE0BDF86B
S3150800515022000F99B1F85C10884213D1FFE70F9827
S31508005160D0F88000006800688006002809D5FFE7A7
S315080051700F98022101670F98B0F85C10FFF726FC1C
S31508005180FFE7FFE7FFE7C0E00F98B0F85C10B0F85C
S315080051905E00081AADF80E000F98B0F85E000028F9
S315080051A053D0FFE7BDF80E0000284ED0FFE7FFE713
S315080051B0FFE70F98006850E8000F20F490700290FF
S315080051C0FFE702980F99096841E80002002AF0D122
S315080051D0FFE7FFE7FFE7FFE70F98006850E8020FD1
S315080051E04FF6FE71CEF6FF7108400190FFE7019871
S315080051F00F99096841E80202002AEDD1FFE7FFE7A7
S315080052000F982021C0F88C100F980021C1660F98BE
S315080052104167FFE7FFE70F98006850E8000F20F0A6
S3150800522010000090FFE700980F99096841E800020E
S31508005230002AF0D1FFE7FFE70F98022101670F98D0
S31508005240BDF80E10FFF7C2FBFFE75EE09DF83A00D7
S31508005250C00600280FD5FFE79DF832004006002853
S3150800526009D5FFE70F9800684FF4801101620F987F
S31508005270FFF74AFC49E09DF838000006002815D5D6
S31508005280FFE79DF834000006002806D4FFE79DF8DE
S3150800529032000006002809D5FFE70F98806F20B175
S315080052A0FFE70F98816F8847FFE72EE09DF83800E3
S315080052B0400600280AD5FFE79DF834004006002876
S315080052C004D5FFE70F9801F043FD1EE09DF83A006C
S315080052D0000600280AD5FFE79DF837004006002893
S315080052E004D5FFE70F98FFF70BFC0EE09DF83B008F
S315080052F0C00750B1FFE79DF837000006002804D51F
S31508005300FFE70F98FFF768FBFFE710B080BD0000C6
S3150800531080B582B00090009820B9FFE701208DF88B
S31508005320070046E00098806908B1FFE700E0FFE75C
S315080053300098D0F8880040B9FFE70098002180F867
S315080053408410009800F03AF8FFE700982421C0F886
S31508005350881000980068016821F001010160009832
S31508005360806A20B1FFE7009801F002FAFFE700988B
S3150800537001F03EFD012804D1FFE701208DF8070062
S3150800538017E000980068416821F490414160009850
S315080053900068816821F02A01816000980068016828
S315080053A041F001010160009801F086FA8DF80700C6
S315080053B0FFE79DF8070002B080BD000080B5A4B0E5
S315080053C0239000202290219020901F901E9009A8DB
S315080053D05421FCF79AF82398006848F20001C4F2B1
S315080053E00001884240F08E80FFE7202009900020C7
S315080053F00F9009A8FEF7DEF918B1FFE7FCF7C0FB26
S31508005400FFE7FFE741F25C00C4F20200016841F0E1
S3150800541001010160006800F0010008900898FFE7A4
S31508005420FFE741F24C00C4F20200016841F00201B4
S315080054300160006800F0020007900798FFE74FF444
S3150800544040601E9002201F90012120912190082083
S31508005450229040F20040C4F600001EA9FDF726FE81
S3150800546040F21820C2F200003021C4F202010160A5
S315080054702221416000218160C16080220261416170
S315080054808161C1610162FCF791FD18B1FFE7FCF784
S3150800549077FBFFE7FFE7239840F21821C2F20001E5
S315080054A0C0F8801023988862FFE740F27820C2F29D
S315080054B000004421C4F20201016023214160102149
S315080054C081600021C1608022026141618161C16100
S315080054D00162FCF76BFD18B1FFE7FCF751FBFFE72C
S315080054E0FFE7239840F27821C2F20001C1672398AA
S315080054F08862FFE75B200521FEF75CF85B20FEF774
S315080055004FF872E12398006844F60041C4F200019E
